{
  "_format": "hh-sol-artifact-1",
  "contractName": "FHEDoodleJump",
  "sourceName": "contracts/FHEDoodleJump.sol",
  "abi": [
    {
      "inputs": [],
      "name": "ZamaProtocolUnsupported",
      "type": "error"
    },
    {
      "inputs": [],
      "name": "confidentialProtocolId",
      "outputs": [
        {
          "internalType": "uint256",
          "name": "",
          "type": "uint256"
        }
      ],
      "stateMutability": "view",
      "type": "function"
    },
    {
      "inputs": [
        {
          "internalType": "address",
          "name": "player",
          "type": "address"
        }
      ],
      "name": "getJumpHistory",
      "outputs": [
        {
          "internalType": "euint32[]",
          "name": "",
          "type": "bytes32[]"
        }
      ],
      "stateMutability": "view",
      "type": "function"
    },
    {
      "inputs": [],
      "name": "getLastJump",
      "outputs": [
        {
          "internalType": "euint32",
          "name": "",
          "type": "bytes32"
        }
      ],
      "stateMutability": "view",
      "type": "function"
    },
    {
      "inputs": [
        {
          "internalType": "address",
          "name": "player",
          "type": "address"
        }
      ],
      "name": "getTotalJumps",
      "outputs": [
        {
          "internalType": "uint256",
          "name": "",
          "type": "uint256"
        }
      ],
      "stateMutability": "view",
      "type": "function"
    },
    {
      "inputs": [
        {
          "internalType": "externalEuint32",
          "name": "encryptedJump",
          "type": "bytes32"
        },
        {
          "internalType": "bytes",
          "name": "proof",
          "type": "bytes"
        }
      ],
      "name": "submitJump",
      "outputs": [],
      "stateMutability": "nonpayable",
      "type": "function"
    }
  ],
  "bytecode": "0x608060405234801561000f575f5ffd5b506100c461001b6100c9565b80517f9e7b61f58c47dc699ac88507c4f5bb9f121c03808c5676a8078fe583e464970080546001600160a01b03199081166001600160a01b039384161790915560208301517f9e7b61f58c47dc699ac88507c4f5bb9f121c03808c5676a8078fe583e46497018054831691841691909117905560408301517f9e7b61f58c47dc699ac88507c4f5bb9f121c03808c5676a8078fe583e46497028054909216921691909117905550565b610238565b604080516060810182525f808252602082018190529181019190915246600103610122575060408051606080820183525f8083526020808401829052928401819052835191820184528082529181018290529182015290565b4662aa36a7036101a1575060408051606080820183525f8083526020808401829052928401528251908101835273f0ffdc93b7e186bc2f8cb3daa75d86d1930a433d81527392c920834ec8941d2c77d188936e1f7a6f49c1279181019190915273be0e383937d564d7ff0bc3b46c51f0bf8d5c311a9181019190915290565b46617a690361021f575060408051606080820183525f8083526020808401829052928401528251908101835273f0ffdc93b7e186bc2f8cb3daa75d86d1930a433d81527392c920834ec8941d2c77d188936e1f7a6f49c1279181019190915273be0e383937d564d7ff0bc3b46c51f0bf8d5c311a9181019190915290565b6040516373cac13b60e01b815260040160405180910390fd5b610632806102455f395ff3fe608060405234801561000f575f5ffd5b5060043610610064575f3560e01c80638927b0301161004d5780638927b03014610098578063f523d57b146100a0578063f67444bb146100c8575f5ffd5b80632868e722146100685780636399d1661461007d575b5f5ffd5b61007b610076366004610486565b6100e8565b005b610085610165565b6040519081526020015b60405180910390f35b6100856101fd565b6100856100ae3660046104fd565b6001600160a01b03165f9081526020819052604090205490565b6100db6100d63660046104fd565b61020b565b60405161008f919061052a565b5f6101288484848080601f0160208091040260200160405190810160405280939291908181526020018383808284375f9201919091525061027292505050565b905061013381610288565b50335f818152602081815260408220805460018101825590835291200182905561015e908290610297565b5050505050565b335f90815260208190526040812054806101c55760405162461bcd60e51b815260206004820152601560248201527f4e6f206a756d7073207265636f72646564207965740000000000000000000000604482015260640160405180910390fd5b335f9081526020819052604090206101de60018361056c565b815481106101ee576101ee61058b565b905f5260205f20015491505090565b5f6102066102a9565b905090565b6001600160a01b0381165f908152602081815260409182902080548351818402810184019094528084526060939283018282801561026657602002820191905f5260205f20905b815481526020019060010190808311610252575b50505050509050919050565b5f61027f838360046102dd565b90505b92915050565b5f61029382306103fd565b5090565b5f6102a283836103fd565b5090919050565b5f466001036102b85750600190565b4662aa36a7036102c9575061271190565b46617a69036102d857505f1990565b505f90565b7f9e7b61f58c47dc699ac88507c4f5bb9f121c03808c5676a8078fe583e46497015460405163045fc19560e11b81525f917f9e7b61f58c47dc699ac88507c4f5bb9f121c03808c5676a8078fe583e4649700916001600160a01b03909116906308bf832a9061035690889033908990899060040161059f565b6020604051808303815f875af1158015610372573d5f5f3e3d5ffd5b505050506040513d601f19601f82011682018060405250810190610396919061060e565b8154604051630f8e573b60e21b8152600481018390523360248201529193506001600160a01b031690633e395cec906044015f604051808303815f87803b1580156103df575f5ffd5b505af11580156103f1573d5f5f3e3d5ffd5b50505050509392505050565b5f7f9e7b61f58c47dc699ac88507c4f5bb9f121c03808c5676a8078fe583e46497008054604051635ca4b5b160e11b8152600481018690526001600160a01b03858116602483015292935091169063b9496b62906044015f604051808303815f87803b15801561046b575f5ffd5b505af115801561047d573d5f5f3e3d5ffd5b50505050505050565b5f5f5f60408486031215610498575f5ffd5b83359250602084013567ffffffffffffffff8111156104b5575f5ffd5b8401601f810186136104c5575f5ffd5b803567ffffffffffffffff8111156104db575f5ffd5b8660208284010111156104ec575f5ffd5b939660209190910195509293505050565b5f6020828403121561050d575f5ffd5b81356001600160a01b0381168114610523575f5ffd5b9392505050565b602080825282518282018190525f918401906040840190835b81811015610561578351835260209384019390920191600101610543565b509095945050505050565b8181038181111561028257634e487b7160e01b5f52601160045260245ffd5b634e487b7160e01b5f52603260045260245ffd5b8481526001600160a01b0384166020820152608060408201525f8351806080840152806020860160a085015e5f60a0828501015260a0601f19601f830116840101915050605483106105ff57634e487b7160e01b5f52602160045260245ffd5b82606083015295945050505050565b5f6020828403121561061e575f5ffd5b505191905056fea164736f6c634300081b000a",
  "linkReferences": {},
  "deployedLinkReferences": {}
}